:020000040800F2
:1000000000500020C5010008C9010008CB0100080C
:10001000E1010008E3010008F90100080000000008
:100020000000000000000000000000000F020008B7
:100030001102000800000000130200081F18000849
:1000400029020008290200082902000829020008E4
:1000500029020008290200082902000829020008D4
:1000600029020008290200082902000829020008C4
:1000700029020008290200082902000829020008B4
:1000800029020008290200082902000829020008A4
:100090002902000829020008290200082902000894
:1000A0002902000829020008290200082902000884
:1000B0002518000829020008290200082902000862
:1000C0002902000829020008290200082902000864
:1000D00029020008D1160008DD160008E9160008FC
:1000E0002902000829020008290200080000000077
:1000F0000000000000000000000000000000000000
:1001000000000000000000005FF808F107B500F0F3
:10011000CFFE214A214B22498B4226D30021214B7D
:10012000214A934226D300F0CFFE01A9684600F091
:10013000B7FE00251D4E1E4CA41BA410AC421CDCB7
:1001400000251C4E1C4CA41BA410AC421ADC9DE8DC
:10015000030001F0BBFC0646184D194C641BA410AB
:10016000002C14DC304600F098FE52F8040F43F8DF
:10017000040BD1E743F8041BD3E756F82530984722
:100180000135DBE756F8253098470135DDE7013CBE
:1001900055F824309847E3E78C1B00080000002046
:1001A0005400002058000020980600205402000847
:1001B00054020008540200085402000854020008C7
:1001C0005402000814480047FEE71EF0040F0CBF5D
:1001D000EFF30880EFF309807146104A1047FEE7FD
:1001E000FEE71EF0040F0CBFEFF30880EFF3098069
:1001F00071460B4A1047FEE71EF0040F0CBFEFF3E9
:100200000880EFF309807146064A1047FEE7FEE7D3
:10021000FEE7FEE7704700000D010008DF0100085F
:0A022000F70100080D020008FEE7D8
:10022C00901B00080000002054000020901B0008C8
:10023C00000000000000000058000020980600207C
:08024C000000000000000000AA
:1002540010B5C2780378E2B1124AD1684278C94332
:10026400C1F30221C1F10404A2400F24807824FACE
:1002740001F101400A430C491201C818D2B280F8B6
:10028400002303F01F005A090123834041F8223060
:1002940010BD01215A0903F01F0301FA03F32032B0
:1002A4000149F3E700ED00E000E100E008B5144B7C
:1002B40098420BD101214FF4007000F065FA00213F
:1002C4004FF40070BDE8084000F05EBA0D4B984250
:1002D40008D101214FF4806000F056FA00214FF458
:1002E4008060EFE7084B984208D101214FF40040A9
:1002F40000F04AFA00214FF40040E3E708BD00BFD4
:100304000024014000280140003C014043680A7970
:1003140023F4702323F4807343EA02230A6810B59C
:10032400134343608A68CB6884681343084A2240B5
:1003340013434A7943EA420383600A7CC36A013A5D
:1003440023F47003D2B243EA0253C36210BD00BF68
:10035400FDF7F1FF836819B143F00103836070472F
:1003640023F00103FAE7836843F0080383607047CE
:100374008068C0F3C0007047836843F0040383605F
:1003840070478068C0F380007047836819B143F4F4
:10039400A0038360704723F4A003FAE7092970B52A
:1003A4001BD90726A1F10A04C56804EB4404A6403E
:1003B40025EA060503FA04F42C43C460062A18D877
:1003C4001F24013A436B02EB8202944023EA0403A4
:1003D40001FA02F21A43426370BD0724056901EB76
:1003E4004106B44025EA040503FA06F42C430461EB
:1003F400E4E70C2A0CD81F24073A036B02EB8202B1
:10040400944023EA040301FA02F21A43026370BD22
:100414001F240D3AC36A02EB8202944023EA0403C8
:1004240091401943C16270BDC06C80B270470368CB
:10043400194214BF01200020704708B5012000F0C4
:10044400BBF9BDE80840002000F0B6B908B5264B5A
:10045400984209D10121042000F096F900210420DA
:10046400BDE8084000F090B9204B984206D1012124
:10047400082000F089F900210820F1E71C4B98427C
:1004840006D10121102000F07FF900211020E7E7B8
:10049400184B984206D10121202000F075F9002163
:1004A4002020DDE7144B984206D10121402000F0C2
:1004B4006BF900214020D3E7104B984206D101216B
:1004C400802000F061F900218020C9E70C4B98429C
:1004D40008D101214FF4807000F056F900214FF447
:1004E4008070BDE708BD00BF00080140000C01405A
:1004F400001001400014014000180140001C01409C
:1005040000200140012108B5084600F03DF9BDE88E
:1005140008400021012000F037B9CB782DE9F041E3
:10052400DA0648BF8A780E8803F00F0548BF1543E2
:1005340016F0FF0F1AD000214FF0010E4FF00F0CF0
:1005440002680EFA01F737EA06040BD18C000CFAA4
:1005540004F822EA080205FA04F4282B42EA040209
:1005640025D1476101310829EBD10260FF2E1CD946
:1005740000214FF0010E4FF00F0C426801F1080406
:100584000EFA04F434EA06070BD18F000CFA07F8CC
:1005940022EA080205FA07F7282B42EA07020AD1E1
:1005A400446101310829E9D14260BDE8F081482B5A
:1005B40008BF0761D6E7482B08BF0461F1E74FF68F
:1005C400FF730380022383700423C370704783681E
:1005D400194214BF0120002070470AB1016170471D
:1005E400416170470028164A30B500F44015B4BF85
:1005F400D3695368B5F5401F84B210D1556823F010
:10060400706325F07065556019B1420D1201944074
:1006140023430B4A0028B4BFD361536030BDC202E8
:100624004DBF0322420D1201C0F303454CBFAA4043
:1006340004FA02F223EA020343F07063E4E700BF22
:1006440000000140014B1860704700BF00300040BB
:10065400014B5860704700BF00300040014B986068
:10066400704700BF003000404AF6AA22014B1A60CE
:10067400704700BF003000404CF6CC42014B1A607A
:10068400704700BF00300040014B1860704700BF46
:1006940020000E42034A536823F440431843506039
:1006A400704700BF00100240014B1860704700BF44
:1006B40080044242024A136A18431062704700BF22
:1006C40000100240014B1860704700BF3C044242D6
:1006D4001C4A10B5536803F00C03042B01D0082BFB
:1006E4001FD0194B03605368184CC3F30313E15C28
:1006F4000368CB4043605168C1F30221615C23FA73
:1007040001F181605168C1F3C221615CCB40C360D7
:1007140052680F49C2F381328A5CB3FBF2F303617E
:1007240010BD53685168C3F38343CC0303F1020340
:1007340002D408494B43D5E751688903F9D40249E7
:10074400F8E700BF0010024000127A000400002005
:100754000000002000093D00044B9A6911B11043C8
:100764009861704722EA0000FAE700BF00100240D7
:10077400044BDA6911B11043D861704722EA0000D2
:10078400FAE700BF00100240044BDA6811B11043CD
:10079400D860704722EA0000FAE700BF0010024068
:1007A400044B1A6911B110431861704722EA000022
:1007B400FAE700BF00100240014B1860704700BF09
:1007C400400442424209012A074B07D11B6800F04A
:1007D4001F0023FA00F000F001007047022A0CBF4A
:1007E4001B6A5B6AF3E700BF00100240034A938868
:1007F4009BB243F010039380704700BF0028004071
:10080400034A938823F010031B041B0C9380704746
:100814000028004008B5FFF7E9FF054BC0F3034289
:1008240080B21A819881BDE80840FFF7E9BF00BF94
:1008340000280040024A93889B06FCD5704700BFFD
:1008440000280040054A938823F008031B041B0C6E
:10085400938093881B07FCD5704700BF0028004095
:1008640008B5614B98420BD101214FF40060FFF7AA
:100874008BFF00214FF40060BDE80840FFF784BF00
:10088400B0F1804F09D101210846FFF789FF00210B
:100894000120BDE80840FFF783BF544B984206D1BE
:1008A40001210220FFF77CFF00210220F1E7504BD9
:1008B400984206D101210420FFF772FF0021042091
:1008C400E7E74C4B984206D101210820FFF768FF67
:1008D40000210820DDE7484B984206D10121102071
:1008E400FFF75EFF00211020D3E7444B984206D166
:1008F40001212020FFF754FF00212020C9E7404BAD
:10090400984208D101214FF40050FFF73DFF002128
:100914004FF40050B0E73B4B984208D101214FF40B
:100924000020FFF731FF00214FF40020A4E7364BED
:10093400984208D101214FF48010FFF725FF0021D0
:100944004FF4801098E7314B984208D101214FF4BD
:100954000010FFF719FF00214FF400108CE72C4B17
:10096400984206D101214020FFF71AFF00214020C0
:100974008FE7284B984206D101218020FFF710FF12
:100984000021802085E7244B984208D101214FF4AF
:100994008070FFF705FF00214FF4807079E71F4B4B
:1009A400984208D101214FF48030FFF7EDFE002179
:1009B4004FF4803060E71A4B984208D101214FF47C
:1009C4000030FFF7E1FE00214FF4003054E7154BEF
:1009D400984208D101214FF48020FFF7D5FE002171
:1009E4004FF4802048E708BD002C0140000400407B
:1009F40000080040000C00400010004000140040BB
:100A040000340140004C01400050014000540140BA
:100A140000180040001C004000200040004001403D
:100A24000044014000480140224A038890429BB29E
:100A340012D002F5006290420ED0B0F1804F0BD07C
:100A4400A2F59832904207D002F58062904203D01A
:100A540002F58062904203D14A8823F07003134365
:100A6400154A904208D002F5806290421FBF23F4D9
:100A74004073CA889BB2134303808B8883850B8899
:100A840003850C4B98420FD003F5006398420BD0BA
:100A940003F54063984207D003F58063984203D07E
:100AA40003F58063984201D10B7A03860123838284
:100AB400704700BF002C014000100040038C70B54B
:100AC40023F001031B041B0C0384038C8488028B16
:100AD4000D8822F073021204120C2A4323F002033D
:100AE4000D894E881B0435431B0C2B43144DA4B2B3
:100AF400A8429BB20FD005F50065A8420BD005F5BE
:100B04004065A84207D005F58065A84203D005F5E5
:100B14008065A8420ED14D8923F008032B438D88AC
:100B240023F004032B43CE898D8924F44074354388
:100B34002C43A4B284800283CA888286038470BD55
:100B4400002C0140038C70B523F010031B041B0C14
:100B54000384038C8488028B0D8822F4E6421204F9
:100B6400120C42EA052223F020030D894E881B044F
:100B740035431B0C43EA0513114DA4B2A84292B2AB
:100B84009BB203D005F50065A84213D14D8923F02B
:100B9400800343EA05134FF6BF751D408B88CE8949
:100BA40045EA03138D8924F44064354344EA8504FB
:100BB4009BB2A4B284800283CA880287038470BD76
:100BC400002C0140038C70B523F480731B041B0CB0
:100BD4000384038C8288848B0D8824F0730424049A
:100BE400240C2C4323F400730D894E881B043543D5
:100BF4001B0C43EA0523114D92B2A8429BB203D0C9
:100C040005F50065A84213D14D8923F4006343EA36
:100C140005234FF6FF351D408B88CE8945EA032313
:100C24008D8922F44052354342EA05129BB292B2B6
:100C34008280CA8884838287038470BD002C01402B
:100C4400038C70B523F480531B041B0C0384038CA6
:100C54008488828B0D8822F4E6421204120C42EA44
:100C6400052223F400530D894E881B0435431B0CC5
:100C740043EA05330B4DA4B2A84292B29BB203D00F
:100C840005F50065A84205D18D8924F4804444EA21
:100C94008514A4B284808283CA88A0F84020038487
:100CA40070BD00BF002C01404FF6FF73838000230A
:100CB4000380C380438003727047038821B19BB2D1
:100CC40043F001030380704723F001031B041B0C52
:100CD400F8E783899BB212B119438181704723EAF3
:100CE4000101FAE7FFF7F5BF038B23F008031B04A8
:100CF4001B0C194301837047038B23F400631B040B
:100D04001B0C43EA012189B201837047838B23F0D2
:100D140008031B041B0C194381837047838B23F442
:100D240000631B041B0C43EA012189B281837047D1
:100D3400C94389B20182704730B50D460446038A1F
:100D44008A899BB2C98823F440530B430382838965
:100D5400A98823F4B05323F00C031B041B0C0B438E
:100D6400298987B00B4369890B439BB28381838AAA
:100D74009BB223F440731343838201A8FFF7A8FCBA
:100D8400174A039B0499944218BF19461922A38950
:100D94004A4313F4004F2B684FF0640514BF5B0003
:100DA4009B00B2FBF3F1B1FBF5F3A2891801120425
:100DB40005FB13130BD5DA003232B2FBF5F202F065
:100DC400070242EA00039BB2238107B030BD1B0136
:100DD4003233B3FBF5F303F00F030343F3E700BF30
:100DE40000380140838921B19BB243F400538381CD
:100DF400704723F400531B041B0CF8E701F01F0396
:100E040010B5C1F342140121012C01FA03F105D1FB
:100E14000C3003683AB11943016010BD022C0CBFB9
:100E240010301430F5E723EA0101F5E7C1F30801B6
:100E3400818070478088C0F3080070470388194296
:100E440014BF0120002070470123C1F3421210B5E2
:100E5400012A01F01F0403FA04F30ED1828992B22D
:100E64001340028892B26BB10123090A03FA01F11B
:100E74000A4214BF1846002010BD022A0CBF028A81
:100E8400828AECE7184610BD0B0A01219940C94338
:100E940089B20180704708B500F016F80123036099
:100EA400014B0B60704700BF1400002008B500F030
:100EB4001DF8024B024A9A6008BD00BF00ED00E035
:100EC4000000000800F08AB8BFF34F8F0549064BB5
:100ED400CA6802F4E0621343CB60BFF34F8F00BFD4
:100EE400FDE700BF00ED00E00400FA05374B82B0D7
:100EF4001A6842F001021A605968354A0A405A6079
:100F04001A6822F0847222F480321A601A6822F479
:100F140080221A605A6822F4FE025A604FF41F02BB
:100F24009A600022009201921A6842F480321A6098
:100F34001A6802F400320192009A01320092019A76
:100F44001AB9009AB2F5A06FF2D11A6812F40032FD
:100F540018BF01220192019A012A05D04FF00062C4
:100F64001C4B9A6002B070471B4A116841F0100193
:100F74001160116821F003011160116841F0020150
:100F840011605A685A605A685A605A6842F480621A
:100F94005A605A6822F47C125A605A6842F4E81281
:100FA4005A601A6842F080721A601A689201FCD57D
:100FB4005A6822F003025A605A6842F002025A60E8
:100FC4005A6802F00C02082AFAD1C7E7001002405E
:100FD4000000FFF800ED00E000200240114A124B2F
:100FE400516801F00C01042901D008290AD00F49E5
:100FF400196052680E49C2F30312895C1A68CA4028
:101004001A60704751685068C1F38341C00301F10D
:10101400020102D407484143EAE750688003F9D447
:101024000248F8E7001002402C00002000127A0069
:101034001C00002000093D0010B54FF4004086B0AC
:10104400FFF728FB01214FF40070FFF785FB1548DB
:10105400FFF72CF9012400234FF4602201A9114861
:1010640001938DF808308DF80930039204938DF8BC
:101074001440FFF74BF90B482146FFF76BF9094879
:10108400FFF771F90748FFF773F90028FAD105480B
:10109400FFF772F9034C2046FFF773F90028FAD1E1
:1010A40006B010BD00240140014608B509480023DC
:1010B4000122FFF773F901210648FFF766F90221BF
:1010C4000448FFF7B4F90028F9D00248BDE8084005
:1010D400FFF7AAB90024014013B504462248FFF7DC
:1010E400B5F92248FFF7B2F92148FFF7AFF92148D3
:1010F400FFF7ACF901210420FFF72EFB01210820A2
:10110400FFF72AFB01211020FFF726FB01212020F5
:10111400FFF722FBFFF7F6F98CB901210846FFF728
:101124001BFB41F28830002100F0E2FA0121124851
:10113400FFF758FA4FF47A70002100F0D9FA01A8A9
:10114400FFF73DFA01A90848FFF7E7F901A90748A5
:10115400FFF7E3F901A90648FFF7DFF901A90548FC
:10116400FFF7DBF902B010BD00080140000C01409C
:1011740000100140001401400004300002392C2901
:1011840024D8DFE801F08082848688232323171B78
:101194001F24282C3034606264666823236A6C6ED2
:1011A40070383D42474C512323565B727476787AEB
:1011B400237C7E00394B0360012306E0374B036038
:1011C400022302E0354B0360042383807047334BD2
:1011D40003600823F9E7314B03601023F5E72F4B35
:1011E40003602023F1E72D4B03604023EDE72B4BF5
:1011F40003608023E9E7294B03604FF48073E4E73D
:10120400264B03604FF40073DFE7244B03604FF475
:101214008063DAE7214B03604FF40063D5E71F4B8B
:1012240003604FF48053D0E71C4B03604FF400532A
:10123400CBE71A4B03604FF48043C6E7174B0360B8
:101244004FF40043C1E7164BB5E7154BB7E7144B12
:10125400B9E7134BDAE7124BDDE7114BE0E7104B2C
:10126400E3E70F4BE6E70E4BE9E70D4BB0E70C4B1A
:10127400B2E70B4BB4E70A4BB6E7094BB8E7084BA8
:10128400BAE7074BBDE7074BCFE7064BD2E7054B61
:10129400D5E7054B8FE7044B91E700BF00080140F9
:1012A400000C014000100140001401401FB50A4623
:1012B400014602A8FFF762FFBDF80C3001A9ADF8A2
:1012C4000430022302988DF807208DF80630FFF7CA
:1012D40024F905B05DF804FB07B501466846FFF73D
:1012E4004DFFBDF804100098FFF771F9431E5842F2
:1012F400584103B05DF804FB07B50A460146684649
:10130400FFF73CFFBDF80410009803B05DF804EB50
:10131400FFF763B938B50D46044645F25550FFF75B
:1013240091F92846FFF794F92046FFF797F9002032
:10133400FFF788F9BDE83840FFF79EB9FFF794B985
:1013440030B5054685B001A80C46FFF7ADFC114B3E
:10135400ADF8084018680023B0FBF5F00E4C0138D6
:10136400ADF804002046ADF80630ADF80A308DF82B
:101374000C30FFF775FA01210420FFF7F9F901A9F0
:101384002046FFF751FB01212046FFF796FC05B0EC
:1013940030BD00BF2C0000200008004030B585B0EF
:1013A4000C46054610220021684600F09BFB602392
:1013B400ADF800300123002C05F1FF30ADF8023008
:1013C40018BF082403280FD8DFE800F002101D2AF4
:1013D40018212A20FFF76AFF69461848FFF76EFBB9
:1013E400A1B21648FFF780FC05B030BD18212B20B0
:1013F400FFF75CFF69461148FFF7A4FBA1B20F4851
:10140400FFF77AFCF0E718212D20FFF74FFF69461C
:101414000A48FFF7D7FBA1B20848FFF777FCE3E7D8
:1014240018212E20FFF742FF69460448FFF708FC05
:10143400A1B20248FFF772FCD6E700BF00080040E3
:1014440030B585B004460D4610220021684600F0F0
:1014540049FB6023ADF800300123601EADF806504F
:10146400ADF80230032828D8DFE800F0020C151E7E
:1014740069461948FFF722FB08211748FFF734FC97
:1014840005B030BD69461448FFF75CFB08211248DB
:10149400FFF732FCF4E769460F48FFF793FB082196
:1014A4000D48FFF733FCEBE769460B48FFF7C8FB31
:1014B40008210948FFF732FCE2E700210648FFF75C
:1014C40013FC00210448FFF717FC00210248FFF732
:1014D4001DFC0021EDE700BF0008004040F202239C
:1014E400064A03FB0020002340F20122A0F8003248
:1014F400013A01D04370FBE7704700BF5A00002057
:1015040030B5054687B000200C46FFF7E7FF012100
:101514004FF48040FFF720F901210820FFF71CF960
:1015240001210846FFF718F9002C51D001210420AD
:10153400FFF758F84023ADF8003003238DF802304C
:101544001823694624488DF80330FEF7E6FF002C83
:1015540014BF80234FF48063ADF800304FF00403D0
:101564008DF803301C4B69461C4808BF1846FEF72B
:10157400D4FF0C2200230124ADF81220252202A955
:101584001748ADF80C30ADF80E30ADF81030ADF8AA
:1015940014308DF805308DF806308DF8042002954E
:1015A4008DF80740FFF7C8FB01A8FEF751FE22465D
:1015B40040F225510A48FFF721FC21460848FFF76D
:1015C40011FC40F225510648FFF75EFC07B030BD20
:1015D4004FF40073AFE700BF00080140000C014066
:1015E4000038014010B589B20446FFF71FFC802182
:1015F4002046FFF723FC0028F9D010BD38B5044677
:101604000D4615F9011B204689B2FFF70FFC802116
:101614002046FFF713FC0028F9D095F90030002B81
:10162400EFD12046BDE838400A21FFF7DBBF0000B8
:1016340038B50C4640F22551FFF706FC08B30023E9
:101644001D4D012C2B7028D01CD3022C2CD040F221
:1016540002231A4903FB0411B1F800329BB2B3F51B
:10166400007F0EDAB1F800329BB25A1C92B2A1F894
:1016740000222A7852B2CA540022B1F800329BB236
:10168400CA5438BD0E4840F22551FFF7FDFB0C4803
:10169400FFF7D0FB40B22870D9E70A4840F2255141
:1016A400FFF7F2FB0748F3E7074840F22551FFF73D
:1016B400EBFB0548ECE700BF600600205A00002061
:1016C4000038014000440040004800400021014827
:1016D400FFF7AEBF0038014001210148FFF7A8BF62
:1016E4000044004002210148FFF7A2BF0048004027
:1016F400064B30B5D3E9004500196941D3E90045EB
:101704008D4208BF8442F9D330BD00BF6806002073
:10171400094B1B68B3FBF0F00138B0F1807F09D2AC
:10172400F021064B064A586082F8231000229A6082
:1017340007221A60704700BF2C00002010E000E070
:1017440000ED00E0014BC3E900017047680600208A
:10175400014BD3E9000170476806002008B5012158
:101764004FF0C050FFF704F80120FEF78DFFFEF79D
:1017740064FE0120FEF798FF6120FFF723F800289C
:10178400FAD04FF40070FEF795FF48F60B60FFF7B0
:1017940041F80120FEF796FFFFF754F8BDE8084032
:1017A400FFF748B81FB5012104460846FEF7E0FFDD
:1017B4004FF08040FFF754F84FF6FF731C22ADF84A
:1017C4000430ADF808400023012401A94FF0804003
:1017D400ADF80630ADF80A308DF80C308DF80130D4
:1017E4008DF800208DF802408DF80340FFF71CF9B6
:1017F4006846FEF72DFD224621464FF08040FFF754
:1018040071FA21464FF08040FFF757FA21464FF016
:101814008040FFF78DFA04B010BD00F037B8000027
:1018240008B50849D1E90023013243F10003C1E9B5
:10183400002300F02FF9BDE8084001214FF080405B
:10184400FFF776BA680600204FF4FA50FFF760BF3E
:1018540038B5044600F008F9B0B1657815B1012D2A
:1018640008D038BD2078FFF737FD68B101236370D5
:10187400658038BD2078FFF72FFD638810B10133F0
:10188400638038BD6070A38038BD000008B50A4885
:10189400FFF7DEFF0948FFF7DBFF0948FFF7D8FF32
:1018A4000848FFF7D5FF0848FFF7D2FFBDE8084016
:1018B4000648FFF7CDBF00BF3000002036000020EF
:1018C4003C00002042000020480000204E00002080
:1018D40008B500210020FFF735FF0120FFF762FF64
:1018E400FFF73CFFFFF7B0FF0120FFF7F5FBFFF721
:1018F400A3FB10210220FFF7D9FC48212920FFF780
:10190400D5FC48212820FFF7D1FC48212720FFF7E8
:10191400CDFC48212620FFF7C9FC4FF480514FF439
:101924007A10FFF70DFD01210420FFF737FD012197
:101934000320FFF733FD01210220FFF72FFD0121D2
:101944000846FFF72BFD00210420FFF779FD002155
:101954000320FFF775FD00210220FFF771FD002130
:101964000120FFF76DFD00210A20FFF79FFC0021F5
:101974000B20FFF79BFC00210C20FFF797FC0021B4
:101984000D20FFF793FC00210E20FFF78FFC0021B0
:101994000F20FFF78BFC00211020FFF787FC0021AC
:1019A4001120FFF783FC00211D20FFF77FFC00219D
:1019B4001E20FFF77BFC48211D20FFF777FC482100
:1019C4001C20FFF773FC48211B20FFF76FFC482104
:1019D4001A20FFF76BFC48211920FFF767FC482108
:1019E4002620FFF763FC022140F6FF70FFF792FC0C
:1019F40000214FF49640FFF783FD04490448FFF7A4
:101A0400FDFD0122034B1A7008BD00BF841B0008B2
:101A1400003801407906002010B5FFF799FE0B4C01
:101A2400D4E900238B4208BF82420ED2084B022025
:101A3400197881F001011970FFF75EFCFFF788FE49
:101A4400C83041F10001C4E9000110BD7006002056
:101A54007806002008B501200021FFF749FEBDE803
:101A64000840FFF76BBC0000014B1878704700BFBB
:101A74007906002009288CBF00200120704708B592
:101A84000346FFF7F7FF20B11846BDE80840FFF70B
:101A94000BBB08BDF8B5FFF7E7FF78B100240127B9
:101AA400074D084E0A2CE0B208D0FFF7E8FF35F8DE
:101AB40014309842A8BFA7550134F3E7F8BD00BF1E
:101AC400840600207A06002008B5FFF701FF00F025
:101AD40007F8FFF7A1FF00F004F8FFF7BBFFF8E7F2
:101AE4007047704770B4860746D0541E002A41D010
:101AF400CAB2034602E014F1FF343BD303F8012BCE
:101B04009D07F8D1032C2ED9CDB245EA05250F2C1B
:101B140045EA054519D9264603F11002103E0F2E59
:101B240042F8105C42F80C5C42F8085C42F8045C31
:101B340002F11002F2D8A4F1100222F00F0204F014
:101B44000F041032032C13440DD91E462246043AC6
:101B5400032A46F8045BFAD8221F22F00302043257
:101B6400134404F003042CB1C9B21C4403F8011B50
:101B74009C42FBD170BC704714460346C2E700BFC9
:0C1B8400494E4954204F4B2E2E2E2E00AF
:101B9000020406080000000001020304010203041D
:101BA000060708095800002000000000000000009F
:101BB00000000000010203040607080900A24A040D
:101BC0001D00000000001C00000000001B000000C1
:101BD00000001A00000000001900000000002600AC
:041BE0000000000001
:040000050800010DE1
:00000001FF
