:020000040800F2
:1000000000500020C5010008C9010008CB0100080C
:10001000E1010008E3010008F90100080000000008
:100020000000000000000000000000000F020008B7
:100030001102000800000000130200088B130008E2
:1000400029020008290200082902000829020008E4
:1000500029020008290200082902000829020008D4
:1000600029020008290200082902000829020008C4
:1000700029020008290200082902000829020008B4
:1000800029020008290200082902000829020008A4
:100090002902000829020008290200082902000894
:1000A0002902000829020008290200082902000884
:1000B00091130008290200082902000829020008FB
:1000C0002902000829020008290200082902000864
:1000D00029020008711200087D1200088912000828
:1000E0002902000829020008290200080000000077
:1000F0000000000000000000000000000000000000
:1001000000000000000000005FF808F107B500F0F3
:1001100087FD214A214B22498B4226D30021214BC6
:10012000214A934226D300F087FD01A9684600F0DA
:100130006FFD00251D4E1E4CA41BA410AC421CDC00
:1001400000251C4E1C4CA41BA410AC421ADC9DE8DC
:10015000030001F04DF90646184D194C641BA4101C
:10016000002C14DC304600F050FD52F8040F43F828
:10017000040BD1E743F8041BD3E756F82530984722
:100180000135DBE756F8253098470135DDE7013CBE
:1001900055F824309847E3E71815000800000020C0
:1001A0001C0000202000002044060020540200080B
:1001B00054020008540200085402000854020008C7
:1001C0005402000814480047FEE71EF0040F0CBF5D
:1001D000EFF30880EFF309807146104A1047FEE7FD
:1001E000FEE71EF0040F0CBFEFF30880EFF3098069
:1001F00071460B4A1047FEE71EF0040F0CBFEFF3E9
:100200000880EFF309807146064A1047FEE7FEE7D3
:10021000FEE7FEE7704700000D010008DF0100085F
:0A022000F70100080D020008FEE7D8
:10022C001C150008000000201C0000201C150008F4
:10023C000000000000000000200000204406002008
:08024C000000000000000000AA
:1002540010B5C2780378E2B1124AD1684278C94332
:10026400C1F30221C1F10404A2400F24807824FACE
:1002740001F101400A430C491201C818D2B280F8B6
:10028400002303F01F005A090123834041F8223060
:1002940010BD01215A0903F01F0301FA03F32032B0
:1002A4000149F3E700ED00E000E100E008B5144B7C
:1002B40098420BD101214FF4007000F0A1F9002104
:1002C4004FF40070BDE8084000F09AB90D4B984215
:1002D40008D101214FF4806000F092F900214FF41D
:1002E4008060EFE7084B984208D101214FF40040A9
:1002F40000F086F900214FF40040E3E708BD00BF99
:100304000024014000280140003C014043680A7970
:1003140023F4702323F4807343EA02230A6810B59C
:10032400134343608A68CB6884681343084A2240B5
:1003340013434A7943EA420383600A7CC36A013A5D
:1003440023F47003D2B243EA0253C36210BD00BF68
:10035400FDF7F1FF836819B143F00103836070472F
:1003640023F00103FAE7836843F0080383607047CE
:100374008068C0F3C0007047836843F0040383605F
:1003840070478068C0F38000704708B5012000F012
:100394004FF9BDE80840002000F04AB908B5264BE3
:1003A400984209D10121042000F02AF900210420F7
:1003B400BDE8084000F024B9204B984206D1012141
:1003C400082000F01DF900210820F1E71C4B984299
:1003D40006D10121102000F013F900211020E7E7D5
:1003E400184B984206D10121202000F009F9002180
:1003F4002020DDE7144B984206D10121402000F073
:10040400FFF800214020D3E7104B984206D1012188
:10041400802000F0F5F800218020C9E70C4B9842B9
:1004240008D101214FF4807000F0EAF800214FF464
:100434008070BDE708BD00BF00080140000C01400A
:10044400001001400014014000180140001C01404C
:1004540000200140012108B5084600F0D1F8BDE8AC
:1004640008400021012000F0CBB8CB782DE9F04101
:10047400DA0648BF8A780E8803F00F0548BF154393
:1004840016F0FF0F1AD000214FF0010E4FF00F0CA1
:1004940002680EFA01F737EA06040BD18C000CFA55
:1004A40004F822EA080205FA04F4282B42EA0402BA
:1004B40025D1476101310829EBD10260FF2E1CD9F7
:1004C40000214FF0010E4FF00F0C426801F10804B7
:1004D4000EFA04F434EA06070BD18F000CFA07F87D
:1004E40022EA080205FA07F7282B42EA07020AD192
:1004F400446101310829E9D14260BDE8F081482B0B
:1005040008BF0761D6E7482B08BF0461F1E74FF63F
:10051400FF730380022383700423C37070470AB1FE
:1005240001617047416170470028164A30B500F4F4
:100534004015B4BFD3695368B5F5401F84B210D1D8
:10054400556823F0706325F07065556019B1420D4C
:100554001201944023430B4A0028B4BFD361536073
:1005640030BDC2024DBF0322420D1201C0F3034548
:100574004CBFAA4004FA02F223EA020343F0706378
:10058400E4E700BF00000140014B1860704700BF62
:1005940020000E42034A536823F44043184350603A
:1005A400704700BF00100240014B1860704700BF45
:1005B40080044242024A136A18431062704700BF23
:1005C40000100240014B1860704700BF3C044242D7
:1005D400044B9A6911B110439861704722EA0000F4
:1005E400FAE700BF00100240044BDA6911B110436E
:1005F400D861704722EA0000FAE700BF0010024009
:10060400044BDA6811B11043D860704722EA000045
:10061400FAE700BF00100240044B1A6911B11043FD
:100624001861704722EA0000FAE700BF0010024098
:10063400014B1860704700BF400442424209012A3E
:10064400074B07D11B6800F01F0023FA00F000F0ED
:1006540001007047022A0CBF1B6A5B6AF3E700BF04
:1006640000100240034A93889BB243F01003938026
:10067400704700BF00280040034A938823F010030A
:100684001B041B0C938070470028004008B5FFF73B
:10069400E9FF054BC0F3034280B21A819881BDE89B
:1006A4000840FFF7E9BF00BF00280040024A9388D2
:1006B4009B06FCD5704700BF00280040054A93887C
:1006C40023F008031B041B0C938093881B07FCD5A1
:1006D400704700BF0028004008B5614B98420BD119
:1006E40001214FF40060FFF78BFF00214FF40060FD
:1006F400BDE80840FFF784BFB0F1804F09D1012164
:100704000846FFF789FF00210120BDE80840FFF7F4
:1007140083BF544B984206D101210220FFF77CFF8E
:1007240000210220F1E7504B984206D10121042018
:10073400FFF772FF00210420E7E74C4B984206D1F3
:1007440001210820FFF768FF00210820DDE7484B5E
:10075400984206D101211020FFF75EFF00211020EE
:10076400D3E7444B984206D101212020FFF754FFE0
:1007740000212020C9E7404B984208D101214FF4C1
:100784000050FFF73DFF00214FF40050B0E73B4B12
:10079400984208D101214FF40020FFF731FF0021D6
:1007A4004FF40020A4E7364B984208D101214FF4BE
:1007B4008010FFF725FF00214FF4801098E7314B9C
:1007C400984208D101214FF40010FFF719FF0021CE
:1007D4004FF400108CE72C4B984206D101214020A5
:1007E400FFF71AFF002140208FE7284B984206D1DB
:1007F40001218020FFF710FF0021802085E7244B92
:10080400984208D101214FF48070FFF705FF0021C1
:100814004FF4807079E71F4B984208D101214FF4BF
:100824008030FFF7EDFE00214FF4803060E71A4B73
:10083400984208D101214FF40030FFF7E1FE002176
:100844004FF4003054E7154B984208D101214FF47E
:100854008020FFF7D5FE00214FF4802048E708BD33
:10086400002C01400004004000080040000C00403F
:10087400001000400014004000340140004C0140CE
:10088400005001400054014000180040001C00408A
:100894000020004000400140004401400048014065
:1008A400224A038890429BB212D002F50062904221
:1008B4000ED0B0F1804F0BD0A2F59832904207D001
:1008C40002F58062904203D002F58062904203D127
:1008D4004A8823F070031343154A904208D002F566
:1008E400806290421FBF23F44073CA889BB21343B3
:1008F40003808B8883850B8803850C4B98420FD02B
:1009040003F5006398420BD003F54063984207D087
:1009140003F58063984203D003F58063984201D1C4
:100924000B7A038601238382704700BF002C0140A9
:1009340000100040038C70B523F001031B041B0C52
:100944000384038C8488028B0D8822F073021204C2
:10095400120C2A4323F002030D894E881B043543ED
:100964001B0C2B43144DA4B2A8429BB20FD005F527
:100974000065A8420BD005F54065A84207D005F5EF
:100984008065A84203D005F58065A8420ED14D8943
:1009940023F008032B438D8823F004032B43CE89D3
:1009A4008D8924F4407435432C43A4B2848002839B
:1009B400CA888286038470BD002C0140038C70B504
:1009C40023F010031B041B0C0384038C8488028B08
:1009D4000D8822F4E6421204120C42EA052223F0A6
:1009E40020030D894E881B0435431B0C43EA051371
:1009F400114DA4B2A84292B29BB203D005F5006592
:100A0400A84213D14D8923F0800343EA05134FF61E
:100A1400BF751D408B88CE8945EA03138D8924F464
:100A24004064354344EA85049BB2A4B284800283C3
:100A3400CA880287038470BD002C0140038C70B502
:100A440023F480731B041B0C0384038C8288848B23
:100A54000D8824F073042404240C2C4323F4007321
:100A64000D894E881B0435431B0C43EA0523114DA5
:100A740092B2A8429BB203D005F50065A84213D1F7
:100A84004D8923F4006343EA05234FF6FF351D40E7
:100A94008B88CE8945EA03238D8922F4405235435D
:100AA40042EA05129BB292B28280CA88848382870A
:100AB400038470BD002C0140038C70B523F4805373
:100AC4001B041B0C0384038C8488828B0D8822F402
:100AD400E6421204120C42EA052223F400530D8963
:100AE4004E881B0435431B0C43EA05330B4DA4B25B
:100AF400A84292B29BB203D005F50065A84205D185
:100B04008D8924F4804444EA8514A4B284808283C9
:100B1400CA88A0F84020038470BD00BF002C0140A7
:100B24004FF6FF73838000230380C38043800372E6
:100B34007047038821B19BB243F0010303807047DF
:100B440023F001031B041B0CF8E783899BB212B149
:100B540019438181704723EA0101FAE7FFF7F5BFE2
:100B6400038B23F008031B041B0C194301837047F8
:100B7400038B23F400631B041B0C43EA012189B299
:100B840001837047838B23F008031B041B0C194358
:100B940081837047838B23F400631B041B0C43EA9B
:100BA400012189B281837047C94389B201827047A8
:100BB4008088C0F3080070470123C1F3421210B5C6
:100BC400012A01F01F0403FA04F30ED1828992B2C0
:100BD4001340028892B26BB10123090A03FA01F1AE
:100BE4000A4214BF1846002010BD022A0CBF028A14
:100BF400828AECE7184610BD0B0A01219940C943CB
:100C040089B20180704708B500F016F8012303602B
:100C1400014B0B60704700BF0000002008B500F0D6
:100C24001DF8024B024A9A6008BD00BF00ED00E0C7
:100C34000000000800F08AB8BFF34F8F0549064B47
:100C4400CA6802F4E0621343CB60BFF34F8F00BF66
:100C5400FDE700BF00ED00E00400FA05374B82B069
:100C64001A6842F001021A605968354A0A405A600B
:100C74001A6822F0847222F480321A601A6822F40C
:100C840080221A605A6822F4FE025A604FF41F024E
:100C94009A600022009201921A6842F480321A602B
:100CA4001A6802F400320192009A01320092019A09
:100CB4001AB9009AB2F5A06FF2D11A6812F4003290
:100CC40018BF01220192019A012A05D04FF0006257
:100CD4001C4B9A6002B070471B4A116841F0100126
:100CE4001160116821F003011160116841F00201E3
:100CF40011605A685A605A685A605A6842F48062AD
:100D04005A605A6822F47C125A605A6842F4E81213
:100D14005A601A6842F080721A601A689201FCD50F
:100D24005A6822F003025A605A6842F002025A607A
:100D34005A6802F00C02082AFAD1C7E700100240F0
:100D44000000FFF800ED00E000200240114A124BC1
:100D5400516801F00C01042901D008290AD00F4977
:100D6400196052680E49C2F30312895C1A68CA40BA
:100D74001A60704751685068C1F38341C00301F1A0
:100D8400020102D407484143EAE750688003F9D4DA
:100D94000248F8E7001002401800002000127A0010
:100DA4000800002000093D0010B54FF4004086B053
:100DB400FFF7F0FB01214FF40070FFF709FC154821
:100DC400FFF774FA012400234FF4602201A91148AB
:100DD40001938DF808308DF80930039204938DF84F
:100DE4001440FFF793FA0B482146FFF7B3FA09487A
:100DF400FFF7B9FA0748FFF7BBFA0028FAD105480C
:100E0400FFF7BAFA034C2046FFF7BBFA0028FAD1E1
:100E140006B010BD0024014013B504462248FFF774
:100E2400BDFA2248FFF7BAFA2148FFF7B7FA21487A
:100E3400FFF7B4FA01210420FFF7CAFB01210820BF
:100E4400FFF7C6FB01211020FFF7C2FB0121202080
:100E5400FFF7BEFBFFF7FEFA8CB901210846FFF746
:100E6400B7FB41F28830002100F012FA0121124848
:100E7400FFF75AFB4FF47A70002100F009FA01A839
:100E8400FFF745FB01A90848FFF7EFFA01A9074856
:100E9400FFF7EBFA01A90648FFF7E7FA01A90548AD
:100EA400FFF7E3FA02B010BD00080140000C014056
:100EB40000100140001401400004300002392C29C4
:100EC40024D8DFE801F08082848688232323171B3B
:100ED4001F24282C3034606264666823236A6C6E95
:100EE40070383D42474C512323565B727476787AAE
:100EF400237C7E00394B0360012306E0374B0360FB
:100F0400022302E0354B0360042383807047334B94
:100F140003600823F9E7314B03601023F5E72F4BF7
:100F240003602023F1E72D4B03604023EDE72B4BB7
:100F340003608023E9E7294B03604FF48073E4E7FF
:100F4400264B03604FF40073DFE7244B03604FF438
:100F54008063DAE7214B03604FF40063D5E71F4B4E
:100F640003604FF48053D0E71C4B03604FF40053ED
:100F7400CBE71A4B03604FF48043C6E7174B03607B
:100F84004FF40043C1E7164BB5E7154BB7E7144BD5
:100F9400B9E7134BDAE7124BDDE7114BE0E7104BEF
:100FA400E3E70F4BE6E70E4BE9E70D4BB0E70C4BDD
:100FB400B2E70B4BB4E70A4BB6E7094BB8E7084B6B
:100FC400BAE7074BBDE7074BCFE7064BD2E7054B24
:100FD400D5E7054B8FE7044B91E700BF00080140BC
:100FE400000C014000100140001401401FB50A46E6
:100FF400014602A8FFF762FFBDF80C3001A9ADF865
:101004000430022302988DF807208DF80630FFF78C
:101014002CFA05B05DF804FB07B50A46014668469C
:10102400FFF74CFFBDF80410009803B05DF804EB23
:10103400FFF775BA30B5054685B001A80C46FFF731
:101044006FFD114BADF8084018680023B0FBF5F0B4
:101054000E4C0138ADF804002046ADF80630ADF86A
:101064000A308DF80C30FFF737FB01210420FFF71D
:10107400BBFA01A92046FFF713FC01212046FFF724
:1010840058FD05B030BD00BF180000200008004026
:1010940030B585B00C46054610220021684600F0A4
:1010A400EDF96023ADF800300123002C05F1FF3089
:1010B400ADF8023018BF082403280FD8DFE800F089
:1010C40002101D2A18212A20FFF790FF69461848AC
:1010D400FFF730FCA1B21648FFF742FD05B030BD62
:1010E40018212B20FFF782FF69461148FFF766FCA1
:1010F400A1B20F48FFF73CFDF0E718212D20FFF7C0
:1011040075FF69460A48FFF799FCA1B20848FFF742
:1011140039FDE3E718212E20FFF768FF69460448EC
:10112400FFF7CAFCA1B20248FFF734FDD6E700BFBF
:101134000008004030B585B004460D461022002159
:10114400684600F09BF96023ADF800300123601E6F
:10115400ADF80650ADF80230032828D8DFE800F0D7
:10116400020C151E69461948FFF7E4FB08211748CD
:10117400FFF7F6FC05B030BD69461448FFF71EFCC6
:1011840008211248FFF7F4FCF4E769460F48FFF71B
:1011940055FC08210D48FFF7F5FCEBE769460B48C1
:1011A400FFF78AFC08210948FFF7F4FCE2E7002175
:1011B4000648FFF7D5FC00210448FFF7D9FC0021BD
:1011C4000248FFF7DFFC0021EDE700BF0008004004
:1011D40038B50C4640F22551FFF7EEFC08B3002366
:1011E4001D4D012C2B7028D01CD3022C2CD040F286
:1011F40002231A4903FB0411B1F800329BB2B3F580
:10120400007F0EDAB1F800329BB25A1C92B2A1F8F8
:1012140000222A7852B2CA540022B1F800329BB29A
:10122400CA5438BD0E4840F22551FFF7E5FC0C487E
:10123400FFF7BEFC40B22870D9E70A4840F22551B6
:10124400FFF7DAFC0748F3E7074840F22551FFF7B8
:10125400D3FC0548ECE700BF28060020220000204C
:10126400003801400044004000480040002101488B
:10127400FFF7AEBF0038014001210148FFF7A8BFC6
:101284000044004002210148FFF7A2BF004800408B
:10129400064B30B5D3E9004500196941D3E900454F
:1012A4008D4208BF8442F9D330BD00BF3006002010
:1012B400014BC3E90001704730060020014BD3E91C
:1012C400000170473006002008B501214FF0C050DE
:1012D400FFF78AF90120FFF757F9FFF756F80120C5
:1012E400FFF762F96120FFF7A9F90028FAD04FF45B
:1012F4000070FFF75FF948F60B60FFF7C7F90120AC
:10130400FFF760F9FFF7DAF9BDE80840FFF7CEB957
:101314001FB5012104460846FFF766F94FF08040E7
:10132400FFF7DAF94FF6FF731C22ADF80430ADF87D
:1013340008400023012401A94FF08040ADF8063095
:10134400ADF80A308DF80C308DF801308DF800209E
:101354008DF802408DF80340FFF7A2FA6846FEF7C5
:1013640077FF224621464FF08040FFF7F7FB2146E6
:101374004FF08040FFF7DDFB21464FF08040FFF740
:1013840013FC04B010BD00BF7047000006494FF0C5
:101394008040D1E90023013243F10003C1E9002375
:1013A4000121FFF701BC00BF3006002010B5FFF794
:1013B40085FF0C4CD4E900238B4208BF82420FD234
:1013C400094B0220197881F001011970FFF724FEFE
:1013D400FFF774FF10F5FA7041F10001C4E9000150
:1013E40010BD00BF380600204006002010B50021C3
:1013F4000020FFF75DFF0120FFF78AFFFFF764FF7E
:101404000120FFF709FDFFF7CFFC10210220FFF7B1
:10141400EDFD4FF480514FF47A10FFF70BFE0121DC
:101424000846FFF735FE01210220FFF731FE0121B6
:101434000320FFF72DFE01210420FFF729FE0024DD
:10144400FFF7B4FFB4F5805FAEBF00240134A4B24B
:1014540021460120FFF76EFE21460220FFF76AFEB7
:1014640021460320FFF766FE21460420FFF762FEB3
:1014740005200021FFF70CFFE2E7000070B48607A7
:1014840046D0541E002A41D0CAB2034602E014F1E9
:10149400FF343BD303F8012B9D07F8D1032C2ED93D
:1014A400CDB245EA05250F2C45EA054519D926464E
:1014B40003F11002103E0F2E42F8105C42F80C5C4F
:1014C40042F8085C42F8045C02F11002F2D8A4F17C
:1014D400100222F00F0204F00F041032032C134404
:1014E4000DD91E462246043A032A46F8045BFAD86C
:1014F400221F22F003020432134404F003042CB12B
:10150400C9B21C4403F8011B9C42FBD170BC704758
:0815140014460346C2E700BFC4
:10151C00200000200000000000000000000000007F
:0C152C00010203040607080900A24A049B
:040000050800010DE1
:00000001FF
